:020000040800F2
:10000000200700204D0200084F1C0008871300083D
:100010004D1C00089D040008CF1F000800000000D0
:10002000000000000000000000000000811E000829
:10003000F904000800000000511C0008831E00089D
:1000400067020008670200086702000867020008EC
:1000500067020008670200086702000867020008DC
:1000600067020008670200086702000867020008CC
:1000700067020008670200086702000867020008BC
:1000800067020008670200086702000867020008AC
:10009000670200086702000867020008670200089C
:1000A000670200086702000867020008670200088C
:1000B000670200086702000867020008670200087C
:1000C000670200086702000867020008670200086C
:1000D000670200086702000867020008670200085C
:1000E000670200086702000867020008670200084C
:1000F000670200086702000867020008670200083C
:10010000670200086702000867020008670200082B
:10011000670200086702000867020008670200081B
:10012000670200086702000867020008670200080B
:1001300067020008670200086702000867020008FB
:1001400067020008670200086702000867020008EB
:1001500067020008670200086702000867020008DB
:1001600067020008670200086702000867020008CB
:10017000670200086702000867020008000000002C
:1001800067020008670200086702000867020008AB
:10019000670200086702000867020008670200089B
:1001A00067020008670200086702000800F002F812
:1001B00000F03CF80AA090E8000C82448344AAF1C5
:1001C0000107DA4501D100F031F8AFF2090EBAE8C3
:1001D0000F0013F0010F18BFFB1A43F0010318477B
:1001E000DC290000FC290000103A24BF78C878C13F
:1001F000FAD8520724BF30C830C144BF04680C602D
:10020000704700000023002400250026103A28BF74
:1002100078C1FBD8520728BF30C148BF0B60704778
:100220001FB501F0DDFF1FBD10B510BD00F0CFF808
:100230001146FFF7F5FF01F087FF00F0EDF803B47A
:10024000FFF7F2FF03BC00F0F5F800000948804713
:1002500009480047FEE7FEE7FEE7FEE7FEE7FEE7A8
:10026000FEE7FEE7FEE7FEE704480549054A064BC0
:1002700070470000291F0008AD0100082001002080
:1002800020070020200300202003002053EA020C56
:1002900000F069802DE9F04B4FF00006002B1FBFE6
:1002A000B3FA83F503FA05F424FA05F65E4012BFAB
:1002B0001643B2FA82F502FA05F4C5F120051EBF15
:1002C00022FA05FC44EA0C04203556EA044C4FEAB5
:1002D000144418BF641C4FF000084FF0000990420E
:1002E00071EB030C39D3002919BFB1FA81F701FA78
:1002F00007F6B0FA80F700FA07F6C7F120071EBF2D
:1003000020FA07FC46EA0C062037B6FBF4FCA7EB04
:100310000507103F07F01F0BCBF120060CFA0BFB73
:100320002CFA06F644BFB3460026202FA4BF5E4633
:100330004FF0000B5BEA060C08BF4FF0010B19EB06
:100340000B09ABFB027C48EB0608C01B06FB02CC8A
:100350000BFB03CC71EB0C01C1E70B460246414697
:100360004846BDE8F08B13B54FF000004FF0000198
:10037000AFF30080BDE81C4070474FF0000200B5AD
:10038000134694469646203922BFA0E80C50A0E8B8
:100390000C50B1F12001BFF4F7AF090728BFA0E866
:1003A0000C5048BF0CC05DF804EB890028BF40F832
:1003B000042B08BF704748BF20F8022B11F0804F74
:1003C00018BF00F8012B704770477047704775469B
:1003D00000F02CF8AE4605006946534620F00700B1
:1003E000854618B020B5FFF73FFFBDE820404FF02D
:1003F00000064FF000074FF000084FF0000B21F00F
:100400000701AC46ACE8C009ACE8C009ACE8C009DB
:10041000ACE8C0098D46704710B50446AFF30080C4
:100420002046BDE81040FFF70ABF000000487047B3
:10043000BC00002001491820ABBEFEE726000200E8
:1004400070472DE9F04107461C4615460E462A2006
:1004500001F0BEFDC7F30F2001F0D0FDF8B201F0AE
:10046000CDFDC6F30F2001F0C9FDF0B201F0C6FDCD
:100470002B2001F0ADFDC5F30F2001F0BFFDE8B268
:1004800001F0BCFDC4F30F2001F0B8FDE0B201F0B3
:10049000B5FDBDE8F0412C2001F09ABDFEE72DE945
:1004A000F0410D460646002401F028F82A2000F00D
:1004B000F1FF01F063F8002000F0ECFF01F05EF8BE
:1004C00001F03CF801F01AF82B2000F0E3FF01F0F6
:1004D00055F86F1E09E0BC4201D1002000E0012068
:1004E00000F0A6FF3055641C64B2AC42F3D301F0B7
:1004F00025F80020BDE8F081704700001CB50B46D0
:1005000014461A460146FFF79CFF012240210B4882
:1005100000F034F9200A8DF804408DF800004FF007
:10052000FF34234601226946054800F065FE234654
:10053000012201A9024800F05FFE1CBD000002403C
:100540006400002072B6FEE72DE9F84FDFF8F8A14D
:100550000022012403254FF00F090AF1040BAAF130
:10056000040E00BF0B6804FA02F63340B34270D1A8
:100570000F7907F00307012F01D0022F16D18768EA
:100580004FEA420805FA08FC27EA0C07D1F80CC02C
:100590000CFA08FC4CEA070CC0F808C04768B743DF
:1005A0000E79C6F3001696403E4346600E79F64338
:1005B000B6070AD0C7684FEA420C05FA0CF6B743F3
:1005C0008E6806FA0CF63E43C6600E7906F0030606
:1005D000022E10D1D60800EB8608D8F82060570705
:1005E0004FEAD76C09FA0CF7BE430F6907FA0CF70C
:1005F0003743C8F8207006684FEA420C05FA0CF73A
:10060000BE430F7907F0030707FA0CF7374307607B
:100610004E6816F4403F1CD04C4E376847F4804774
:100620003760366822F0030706F480460096484E8D
:1006300007EB060CDCF8086897073F0F09FA07F884
:1006400026EA0806DFF80C81404503D14FF0000888
:1006500041E072E0DFF80081404502D14FF001082F
:1006600039E0DFF8F880404502D14FF0020832E06F
:10067000DFF8EC80404502D14FF003082BE0DFF8B3
:10068000E480404502D14FF0040824E0DFF8D88030
:10069000404502D14FF005081DE0DFF8D08040450D
:1006A00002D14FF0060816E0DFF8C480404502D1C1
:1006B0004FF007080FE0DFF8BC80404502D14FF053
:1006C000080808E0DFF8B080404502D14FF0090883
:1006D00001E04FF00A0808FA07F848EA0608CCF8E3
:1006E0000888DAF800605746D1F804C09E435FEAF4
:1006F000CC2C00D51E433E60DBF800605F46D1F88D
:1007000004C09E435FEA8C2C00D51E433E60DEF899
:1007100000607746D1F804C09E435FEA8C3C00D568
:100720001E433E60084F083F3E68D1F804C09E4318
:100730005FEACC3C00D51E433E60521C102AFFF4F9
:1007400011AFBDE8F88F0000083C0140443802407A
:100750000030014000000240000402400008024056
:10076000000C024000100240001402400018024039
:10077000001C024000200240002402400AB18161B6
:1007800070470904FBE700000148806870470000DB
:100790000000002090F83D20202A01D00220704760
:1007A000242280F83D200268136823F001031360BF
:1007B0000268536A23F0100353620268536A0B43C2
:1007C000536201680A6842F001020A60202180F841
:1007D0003D100020704790F83D20202A01D00220D3
:1007E0007047242280F83D200268136823F001033B
:1007F000136003685A6A22F00F020A4391B25962E9
:1008000001680A6842F001020A60202180F83D1068
:100810000020704770B5040025D094F83D000025F5
:1008200020B984F83C50204600F0B8F8242084F821
:100830003D002068016821F0010101602068016825
:1008400041F4004101602068016821F40041016029
:1008500000F036FA4D4A6168914201D84C4900E0F7
:100860004C49884201D2012070BD4B492368B0FB3E
:10087000F1F15E6826F03F060E435E6063689342C6
:1008800006D94FF4967359434FF47A73B1FBF3F1E1
:100890002368491C1E6A26F03F06314319626168CD
:1008A000914210D84900401EB0FBF1F2521CC2F335
:1008B0000B02042A01D2042022E0B0FBF1F0401C1C
:1008C000C0F30B001CE0A268F2B301EBC10303EB21
:1008D0000116431EB3FBF6F35B1C43F480431B0578
:1008E00049D092B301EBC10202EB0111401EB0FBF3
:1008F000F1F0401CC0F30B0040F4804040F4004095
:100900002168CA694CF6FF739A431043C861D4E961
:10091000071001432068026822F0C0021143016001
:10092000D4E9030101432068826848F2FF339A4307
:1009300011438160D4E9050108432168CA6822F0A7
:10094000FF021043C86001E00EE016E02068016875
:1009500041F0010101602564202084F83D002563F9
:1009600084F83E50002070BD01EB4106431EB3FBEE
:10097000F6F35B1CB3E70120C2E701EB4101401E27
:10098000B0FBF1F0401CC0F30B00B7E7A0860100FC
:1009900080841E0000093D0040420F0010B586B063
:1009A000044614216846FFF7E8FC13492068884292
:1009B00020D112480021026842F002020260006861
:1009C00000F002000590C02000901220CDE9010146
:1009D000032003900420049069460948FFF7B4FD02
:1009E00006481030016841F400110160006800F40D
:1009F0000010059006B010BD005400403038024091
:100A00000004024002488168027811448160704706
:100A1000000000200B4810B5016841F4007101602E
:100A2000016841F480610160016841F480710160F6
:100A3000032000F061F80F2000F006F800F024F821
:100A4000002010BD003C024070B50D4D04464FF42F
:100A50007A712878B1FBF0F00A490968B1FBF0F02F
:100A600000F07DFC48B9102C07D200222146501E10
:100A700000F022F800206C6070BD012070BD000005
:100A8000000000200C0000200A4808B5016841F46D
:100A900080410160006800F4804000900548001F1C
:100AA000016841F080510160006800F080500090C2
:100AB00008BD000044380240F0B40E4B1B680C46E1
:100AC000C3F30223C3F10705042D00D90425191D22
:100AD000072901D2002300E0DB1E012606FA05F1FA
:100AE000491E214099409E40761E16403143F0BC7D
:100AF00001F09ABA0CED00E0064900F00702086820
:100B00004FF6FF03184040EA0220034A10430860F2
:100B1000704700000CED00E00000FA052DE9F843F5
:100B20001748016841F0805101600068154F00F0DE
:100B30008050012600903E64FFF726FE05464FF4E4
:100B40007A78114C05E000BFFFF71EFE401B4045C0
:100B50000DD86068C003F7D57E64FFF715FE054623
:100B6000464607E0FFF710FE401BB04202D90320C3
:100B7000BDE8F88360688003F4D50020F8E7000042
:100B80004038024000000E42007000402DE9F0475E
:100B90000E46050065D0DFF81481D8F80000F7B2E2
:100BA00000F00F00B04207D288F80070D8F80000BB
:100BB00000F00F00B04254D128683D4C810712D597
:100BC000400703D5206840F4E050206028780007F3
:100BD00003D5206840F4604020602068A96820F0B8
:100BE000F000084320602878C0072DD0304968689D
:100BF0000839012812D0022813D0032811D009681F
:100C0000890700292DDA216821F0030101432160C1
:100C1000FFF7BAFD814641F2883A0EE00968890380
:100C2000EFE709688901ECE7FFF7AEFDA0EB0901EA
:100C3000514502D90320BDE8F0872068696800F0BB
:100C40000C00B0EB810FEFD1D8F80010404601F056
:100C50000F01B14207D90770006800F00F00B042E1
:100C600001D00120E7E72878400705D52068E9682A
:100C700020F4E050084320602878000706D520685B
:100C8000296920F4604040EAC100206000F028F8A3
:100C90002168084AC1F30311515CC8400649086045
:100CA00006480068FFF7D0FE0020C4E7003C024081
:100CB00008380240A22B00080C000020040000208D
:100CC0000448054900680968044AC1F38221515C5F
:100CD000C84070470C00002008380240B22B0008C2
:100CE000154810B5006810F00C02144813D04110DC
:100CF000042A0FD0082A0ED10F4C241F2268236823
:100D000002F03F025B0207D52068C0F38810A0FB09
:100D1000010106E0084610BD2168C1F38811A1FB5E
:100D200000010023FFF7B2FA2168C1F30141491C19
:100D30004900B0FBF1F010BD083802400024F40077
:100D40002DE9F84F04006ED02078DFF84C93C007EF
:100D5000A9F104054AD009F104000168C1F3810139
:100D6000012908D00068C0F3810002280AD1D9F80F
:100D70000000400206D52868800337D56068002847
:100D8000E1D033E06068B0F5803F10D0B0F5A02F1F
:100D9000286810D020F480302860286820F4802053
:100DA00028606068A8B1FFF7EFFC06460DE02868F0
:100DB00040F48030F4E740F480202860F7E700BF7B
:100DC000FFF7E2FC801B642873D828688003F7D5FE
:100DD0000CE0FFF7D9FC064605E000BFFFF7D4FCA6
:100DE000801B6428F0D828688003F7D42078DFF8C7
:100DF000AC8280074FF0000A3ED5A748001D01686D
:100E000011F00C0F08D00068C0F3810002280BD14C
:100E1000D9F80000400207D42868800716D5E0689A
:100E2000012800D112E033E1E068B8B10120C8F830
:100E30000000FFF7A9FC064605E000BFFFF7A4FC91
:100E4000801B0228C0D828688007F7D52868216948
:100E500020F0F80040EAC10028600DE0C8F800A0CA
:100E6000FFF792FC064604E0FFF78EFC801B022889
:100E70001FD828688007F7D42078000722D5864F2E
:100E800087486169703771B101210160FFF77CFC0F
:100E9000064604E0FFF778FC801B022809D8386872
:100EA0008007F7D50EE0C0F800A0FFF76DFC0646FE
:100EB00005E082E0FFF768FC801B02287DD83868D7
:100EC0008007F7D42078400768D5DFF8CCB1002739
:100ED0000BF13C0BDBF80000C0000BD4DBF800107A
:100EE00041F08051CBF80010DBF80000012700F042
:100EF000805000906B4E3068C00510D4306840F4CC
:100F000080703060FFF740FC009005E0FFF73CFC8C
:100F10000099401A022850D83068C005F6D55E4EB8
:100F2000A0686C3601280FD00528306810D020F05A
:100F300001003060306820F004003060A068B8B173
:100F4000FFF722FC00900FE0306840F00100F4E76A
:100F500040F004003060F7E7FFF716FC0099411AF3
:100F600041F28830814266D830688007F4D50EE0BF
:100F7000FFF70AFC009007E0FFF706FC0099411A12
:100F800041F28830814256D830688007F4D42FB1BE
:100F9000DBF8001021F08051CBF80010A069C8B335
:100FA0003D49091D0968C1F3810102294AD002287F
:100FB000504607D0C8F8600000E03CE0FFF7E4FBD3
:100FC00004463BE04746C8F86000FFF7DDFB0646F5
:100FD00005E000BFFFF7D8FB801B02282BD828684C
:100FE0008001F7D4D4E907010843A16A2E4A4908D1
:100FF00002EB0141626A41EA8211084394F82C1025
:1010000040EA0161C9F8001001203866FFF7BCFB17
:10101000044606E03EE000BFFFF7B6FB001B0228D7
:1010200009D828688001F7D534E000BFFFF7ACFB92
:10103000001B022802D90320BDE8F88F2868800130
:10104000F4D427E00128F7D0D9F80000E26900F4D1
:10105000800191421CD1226A00F03F01914217D1D8
:1010600047F6C071626A0140B1EB821F10D1A26ADB
:101070004FF0FF3300F4403103EB5202B1EB024F6B
:1010800006D194F82C1000F07060B0EB016F01D025
:101090000120D1E70020CFE704380240000047429A
:1010A000800E4742007000400000FFFF70B5040052
:1010B00009D0606A002540B125616561A56294F898
:1010C000510040B10CE0012070BD6068B0F5827F36
:1010D000F4D0E561F2E784F85050204600F044F87F
:1010E000022084F851002068016821F0400101606D
:1010F000A088218900F4827001F404410843A18989
:1011000001F400610843217C01F002010843217DC4
:1011100001F001010843218B01F400710843217F94
:1011200001F03801084394F8201001F080010843D1
:10113000218D01F40051084321680860A069042151
:1011400001EA104094F8241001F0100108432168CE
:1011500048602068C16921F40061C16165650120B2
:1011600084F85100002070BDF0B587B0044614210A
:101170006846FFF702F91C492068884232D11B48B3
:101180000024016841F480510160006800F480503F
:10119000059016481438016841F0010101600168AA
:1011A00001F001010591016841F002010160006850
:1011B000022500F002000590A020CDE9000502AA5A
:1011C0000326052782E8D00069460948FFF7BCF9E5
:1011D0001020CDE9000502AA694682E8D000054842
:1011E000FFF7B2F907B0F0BD0030014044380240CB
:1011F00000000240000402402DE9F84F98461646D0
:101200008A460446FFF7C0FA814694F85100012847
:101210001ED1BAF1000F73D0002E71D094F8500097
:10122000012815D0012784F85070032084F851005C
:1012300000256565C4F830A0A686E686A563A58767
:10124000E58765642564A068B0F5004F03D00CE025
:101250000220BDE8F88F2068016821F0400101609C
:101260002068016841F480410160206801684906F6
:1012700003D4016841F040010160E068B0F5006FFF
:10128000606803D048B3012E27D047E008B1012E93
:101290001FD1206B21680088C86006E02068816843
:1012A000890709D5216B0988C160206B801C2063E8
:1012B000E08E401EE0860CE0FFF766FAA0EB090125
:1012C000414503D3B8F1FF3F03D035E0B8F1000F3B
:1012D00032D0E08E0028E1D123E0206B2168007835
:1012E000087306E02068816889070AD5216B0978B0
:1012F0000173206B401C2063E08E401EE0860DE0F1
:101300002BE0FFF741FAA0EB0901414503D3B8F107
:10131000FF3F03D010E0B8F1000F0DD0E08E0028A1
:10132000E0D14A464146204600F016FD08B1202093
:101330006065A06830B109E084F8517084F85050BD
:10134000032086E72068C1688068009084F85170A7
:1013500004F8505F60680028F3D0012079E710B5E9
:10136000401EB0F1807F01D3012010BD4FF0E0247A
:1013700060610F21601700F057FE0020A061072078
:101380002061002010BDFEE710B50E4C0022402168
:101390002046FFF7F3F9002280212046FFF7EEF9FF
:1013A000052000F011F8012240212046FFF7E6F960
:1013B000052000F009F820460022BDE81040402139
:1013C000FFF7DCB9000402400749084A0968B1FB8D
:1013D000F2F14FF0E0224143906900E000BF9369D1
:1013E000C31A8B42FAD370470C00002040420F0012
:1013F00010B50E4C002240212046FFF7BFF9012214
:1014000080212046FFF7BAF90520FFF7DDFF012212
:1014100040212046FFF7B2F90520FFF7D5FF20460F
:101420000022BDE810404021FFF7A8B900040240A7
:101430002DE9F041164E0746002401228021304656
:10144000FFF79CF90025002240213046FFF796F96E
:101450001E20FFF7B9FF012240213046FFF78EF929
:101460006006040E00F03EFC08B1641CE4B21E20CD
:10147000FFF7AAFF6D1CEDB2082DE4D327B1FFF7EB
:1014800083FF2046BDE8F081FFF7B2FFF9E70000D7
:101490000004024038B5184D044600224021284679
:1014A000FFF76CF9002020E0200601D5012200E0C2
:1014B000002280212846FFF761F90520FFF784FF0D
:1014C000012240212846FFF759F90520FFF77CFF4C
:1014D000002240212846FFF751F90520FFF774FF4D
:1014E0006006040E9DF80000401C8DF800009DF879
:1014F00000000828D8D338BD0004024010B50E4CB7
:10150000012280212046FFF739F90122402120469F
:10151000FFF734F91920FFF757FF002280212046FA
:10152000FFF72CF90520FFF74FFF20460022BDE80A
:1015300010404021FFF722B90004024010B50E4CC4
:10154000002280212046FFF719F900224021204681
:10155000FFF714F90520FFF737FF0122802120460D
:10156000FFF70CF9012240212046FFF707F9BDE8FB
:1015700010400520FFF728BF0004024038B50020C6
:10158000ADF80000144C012280212046FFF7F6F848
:101590000520FFF719FF012240212046FFF7EEF852
:1015A0000520FFF711FF0CE0BDF80000401CADF86E
:1015B0000000BDF80000322803D9FFF7BFFF01206B
:1015C00038BD00F08FFB0028EED1002240212046DC
:1015D000FFF7D4F8002038BD000402402DE9FC4795
:1015E0009946DDE90A8715468A460646002417E033
:1015F00006EBC400802A80B24B4608D2CDE90087B2
:10160000514600F077FB641CE4B26D1C08E0CDE9A4
:1016100000872A46514600F01DFBA41CE4B2AD1C15
:101620002A78002AE4D1BDE8FC8700000449054A75
:101630000968B1FBF2F14143C808401EFDD2704772
:101640000C00002040420F002DE9FC471E46894651
:1016500005461346FEF7F5FE012240211148FFF72B
:101660008DF80024C6F30727A9EB0505F6B24FF065
:10167000FF386D1C12E000BF8DF800708DF804601B
:101680004346012269460848FFF7B6FD434601225A
:1016900001A90548FFF7B0FD641CA4B2A542EBDC2C
:1016A000BDE8FC8700000240640000202DE9FC47F3
:1016B0001E46914613460D460A460146FEF7C1FEF8
:1016C000012240211148FFF759F80024C6F30727EB
:1016D000A9EB0505F6B24FF0FF386D1C12E000BF14
:1016E0008DF800708DF80460434601226946084871
:1016F000FFF782FD4346012201A90548FFF77CFD63
:10170000641CA4B2A542EBDCBDE8FC8700000240EB
:10171000640000202DE9FC471E4614468B1905196C
:101720000A46691E5B1E0A9FFEF78BFE01224021BE
:101730001048FFF723F80025C7F30728FFB24FF042
:10174000FF39744312E000BF8DF800808DF80470FB
:101750004E464B46012269460748FFF74DFD33468A
:10176000012201A90448FFF747FD6D1CAC42EBD8EC
:10177000BDE8FC87000002406400002010B5DE4C8C
:10178000012210212046FEF7F9FF002210212046F9
:10179000FEF7F4FF6420FFF749FFDF2000F018FC9C
:1017A000982000F02BFC512000F028FCE92000F0EC
:1017B00025FCDE2000F00CFC002000F01FFCB72010
:1017C00000F006FC312000F019FC882000F016FC27
:1017D000312000F013FC102000F010FCC82000F0B5
:1017E000F7FB3F2000F00AFC3C2000F007FC34200F
:1017F00000F004FC2D2000F001FC2D2000F0FEFB89
:101800002E2000F0FBFB2A2000F0F8FB2C2000F03B
:10181000F5FB2C2000F0F2FB2D2000F0EFFB2D203B
:1018200000F0ECFB2A2000F0E9FB2A2000F0E6FBA8
:101830002A2000F0E3FB282000F0E0FB0E2000F05F
:10184000DDFB3F2000F0DAFB3C2000F0D7FB34202A
:1018500000F0D4FB2D2000F0D1FB2D2000F0CEFBBA
:101860002E2000F0CBFB2A2000F0C8FB2C2000F03B
:10187000C5FB2C2000F0C2FB2D2000F0BFFB2D206B
:1018800000F0BCFB2A2000F0B9FB2A2000F0B6FBD8
:101890002A2000F0B3FB282000F0B0FB0E2000F05F
:1018A000ADFBB92000F094FB332000F0A7FB28200B
:1018B00000F0A4FBCC2000F0A1FBBB2000F088FBD3
:1018C000062000F09BFB7A2000F098FB302000F00F
:1018D00095FB302000F092FB6C2000F08FFB602025
:1018E00000F08CFB502000F089FB702000F086FB9C
:1018F000BC2000F06DFB382000F080FB3C2000F0A5
:101900007DFBC02000F064FB312000F077FB20203D
:1019100000F074FBC12000F05BFB162000F06EFBB2
:10192000C32000F055FB082000F068FB002000F009
:1019300065FB0A2000F062FB102000F05FFB08202E
:1019400000F05CFB542000F059FB452000F056FBF2
:10195000712000F053FB2C2000F050FBC42000F05D
:1019600037FB002000F04AFBA02000F047FB792065
:1019700000F044FB0E2000F041FB0A2000F03EFB8B
:10198000162000F03BFB792000F038FB0E2000F021
:1019900035FB0A2000F032FB162000F02FFB7920E7
:1019A00000F02CFB0E2000F029FB0A2000F026FBA3
:1019B000162000F023FB822000F020FB002000F026
:1019C0001DFB032000F01AFBD02000F001FB0420D7
:1019D00000F014FB0C2000F011FB6B2000F00EFB5C
:1019E0000F2000F00BFB072000F008FB032000F0A5
:1019F00005FBD72000F0ECFA002000F0FFFA0020F1
:101A000000F0FCFADE2000F0E3FA022000F0F6FA23
:101A10000120FFF70BFEB82000F0DAFA192000F0E1
:101A2000EDFAA02000F0EAFA2F2000F0E7FA0420F7
:101A300000F0E4FA332000F0E1FAC12000F0C8FA27
:101A4000102000F0DBFA662000F0D8FA662000F0E3
:101A5000D5FA012000F0D2FADE2000F0B9FA002019
:101A600000F0CCFA112000F0B3FA7820FFF7DEFD89
:101A7000DE2000F0ADFA022000F0C0FA0120FFF7EE
:101A8000D5FDC52000F0A4FA012000F0B7FA00202F
:101A900000F0B4FA002000F0B1FA0120FFF7C6FD13
:101AA000CA2000F095FA102000F0A8FA202000F0DB
:101AB000A5FAF42000F0A2FA0120FFF7B7FDDE201E
:101AC00000F086FA002000F099FA0120FFF7AEFD41
:101AD0003A2000F07DFA052000F090FA292000F06D
:101AE00077FA0120FFF7A2FD212000F071FABDE88E
:101AF00010400120FFF79ABD000002402DE9F0419F
:101B000086B014216846FEF738FC25480024016899
:101B100041F080010160016801F0800105910168D8
:101B200041F001010160016801F0010105910168C6
:101B300041F040010160016801F040010591016838
:101B400041F0020101600068164F00F002000590AC
:101B5000012210213846FEF711FE002240213846AE
:101B6000FEF70CFEDFF840804FF4005600223146AD
:101B70004046FEF703FE502000900125CDE90154B8
:101B8000694638460394FEF7DFFC0096CDE9015420
:101B9000694640460394FEF7D7FC06B0BDE8F081E5
:101BA000303802400000024000180240144810B5CE
:101BB000124901601349416000214FF48042816065
:101BC000C0E9031241618161C1610162FEF722FE39
:101BD00008B1FEF7B7FC00210948FEF7DBFD08B1AC
:101BE000FEF7B0FC00210648FEF7F5FD002803D003
:101BF000BDE81040FEF7A6BC10BD00000054004038
:101C000010000020A08601000F4810B50D490160AA
:101C10004FF48271416000218160C1604FF4007215
:101C20000161C0E90512C1610162416281620A215C
:101C3000C162FFF73BFA002803D0BDE81040FEF771
:101C400081BC10BD0030014064000020FEE7FEE7CB
:101C5000704700002DE9FF5F8B4604464FF00008F7
:101C60001F48029A08EB081110F8113012789342BD
:101C70002ED100EB410A02989AF801104078814277
:101C800026D100264FF6FF790AEB0600002587785B
:101C9000380603D5601980B2039A04E00F9828B182
:101CA00060190E9A80B25946FEF728FC6D1C09EAAD
:101CB0004707082DECD3F00705D00BF101001FFA00
:101CC00080FB083C00E00834761CA4B2202EDBD355
:101CD00008F10108B8F1400FC2D3BDE8FF9F000032
:101CE000EA2700080248006900F080007047000001
:101CF000000002402DE9FF5F8146203A1006DFF820
:101D000054A0DDF83CB00F464FEA1058002500BF44
:101D100008EB050100241AF80160300604D509EB30
:101D2000040080B2039A06E0BBF1000F06D009EB75
:101D300004000E9A80B23946FEF7E0FB7006060EEC
:101D4000641C082CE9D37F1C6D1CBFB2102DDFD39F
:101D5000BDE8FF9FEA210008F8B515460E460B4680
:101D6000009204460122022100F02CF8A0B9134889
:101D700013490068B0FBF1F04FF47A7148430090CA
:101D80006068B0F5827F0DD1334600228021204665
:101D9000009500F017F870B1606D40F020006065AC
:101DA0000320F8BD009830B1401E00902068806884
:101DB000C0430006F6D50020F8BD00000C0000204E
:101DC00000366E012DE9F8431E46914688460446CA
:101DD000089DFEF7D9FC401B351AFEF7D5FC0746D7
:101DE00026480068C0F3CB3068430AE0701C09D075
:101DF000FEF7CAFCC01BA8420FD275B10098B8B359
:101E0000401E00902068816838EA010033D000212C
:101E10004945EBD10020BDE8F8832068416821F0F6
:101E2000E00141606068B0F5827F0BD1A068B0F539
:101E3000004F02D0B0F5806F04D12068016821F016
:101E400040010160A06AB0F5005F09D12068016817
:101E500021F4005101602068016841F400510160E3
:101E6000012084F85100002084F850000320D2E7BC
:101E7000FFE70025C6E70121CAE700000C000020AB
:101E80007047FEF7BFBD000030B593B03021684603
:101E9000FEF773FA14210CA8FEF76FFA204800250C
:101EA000016841F080510160006800F0805011909D
:101EB0001C48016841F4404101600068022400F4BC
:101EC0004040119001200090000401908001CDE974
:101ED0000640082008904FF4B470CDE909040420AE
:101EE0000B906846FEF72CFF08B172B6FEE7FEF7CE
:101EF00015FE08B172B6FEE70CA90F2081E831008B
:101F00004FF4A0500F904FF48050109005210CA872
:101F1000FEF73CFE002801D072B6FEE713B030BDDC
:101F200040380240007000400248016841F47001EE
:101F30000160704788ED00E030B5164887B0002199
:101F4000026842F0020202600068134D00F00200D5
:101F500005904020CDE900010224039469462846FB
:101F6000FEF7F2FA80200090102001906946039459
:101F70002846FEF7E9FA012240212846FEF7FEFB3B
:101F8000012280212846FEF7F9FBFFF7D7FA07B0B8
:101F900030BD0000303802400004024000B585B07A
:101FA000082101A8FEF77BFA9DF8070080280CD1D4
:101FB0009DF80800012808D94FF4784202230092C6
:101FC0009DF80A101A46FFF7A5FB05B000BDFEE715
:101FD00038B50446002240210648FEF7CFFB8DF8B5
:101FE00000404FF0FF33012269460348FFF704F930
:101FF00038BD0000000002406400002038B50446EF
:10200000012240210648FEF7B9FB8DF800404FF051
:10201000FF33012269460348FFF7EEF838BD0000A0
:1020200000000240640000200907090E002804DBBC
:1020300000F1E02080F80014704700F00F0000F17C
:10204000E02080F8141D70472DE9FC47924601F10D
:1020500005080C4605461FFA88F20023FFF726FB09
:1020600004F1140904F10F061FFA89F2B1B200233A
:102070002846FFF71BFB05F11C07B9B200232246D7
:102080002846FFF7E1FA1FFA89F2B9B20023284681
:10209000FFF7DAFA1FFA88F2B8B200232146FFF7F9
:1020A00005FB1FFA89F2B1B2B8B20023FFF7FEFABE
:1020B00005F11F091FFA88F21FFA89F1B8B200234F
:1020C000FFF7C2FAB2B21FFA89F1B8B20023FFF7E4
:1020D000BBFAB2B21FFA88F11FFA89F00023FFF7AA
:1020E000E5FA002728E000BF04F11103E21CE91D16
:1020F000E81CFEF7A6F9012240211148FEF73EFB3D
:102100000026B1464FF0FF388DF800908DF804900E
:102110004346012269460B48FFF76EF84346012209
:1021200001A90848FFF768F8761CF6B24B2EEBD3EE
:10213000AD1D7F1CADB2FFB25745D5D3BDE8FC87BE
:1021400000000240640000201CB5FEF763FCFFF7AE
:102150009BFEFFF7D3FCFFF729FDFFF755FDFFF7C7
:102160000DFBFFF7E9FE1F24F02300211A46084665
:102170000094FFF7CFFAF02300211A460846009496
:10218000FFF7C8FA03220A218220FFF75DFF01242E
:102190004FF6E075CDE900544FF47846334608A277
:1021A0006E213C20FFF71AFACDE90054334608A20D
:1021B00082213C20FFF712FAFFF7F0FEFCE7000057
:1021C000E9929CE6B6A6E7A791E68A8000000000A7
:1021D0007777772E686A726B6A2E636F6D000000E6
:1021E0004FF04070E1EE100A704700000000000060
:1021F000000000000000000000000000183C3C3C13
:102200001818180018180000000000666666240000
:10221000000000000000000000000000006C6CFEE8
:102220006C6C6CFE6C6C0000000018187CC6C2C0A0
:102230007C0686C67C181800000000000000C2C69C
:102240000C183060C686000000000000386C6C3846
:1022500076DCCCCCCC760000000000303030600062
:102260000000000000000000000000000C183030EA
:1022700030303030180C00000000000030180C0C1A
:102280000C0C0C0C18300000000000000000006670
:102290003CFF3C6600000000000000000000001849
:1022A000187E181800000000000000000000000068
:1022B00000000018181830000000000000000000A6
:1022C00000FE000000000000000000000000000010
:1022D00000000000181800000000000000000206C6
:1022E0000C183060C0800000000000007CC6C6CE24
:1022F000D6D6E6C6C67C0000000000001838781864
:1023000018181818187E0000000000007CC6060C83
:10231000183060C0C6FE0000000000007CC6060643
:102320003C060606C67C0000000000000C1C3C6C4D
:10233000CCFE0C0C0C1E000000000000FEC0C0C053
:10234000FC0E0606C67C0000000000003860C0C01D
:10235000FCC6C6C6C67C000000000000FEC606061D
:102360000C18303030300000000000007CC6C6C6BB
:102370007CC6C6C6C67C0000000000007CC6C6C67F
:102380007E0606060C780000000000000000181809
:1023900000000018180000000000000000001818DD
:1023A00000000018183000000000000000060C18A3
:1023B000306030180C060000000000000000000033
:1023C000FE0000FE00000000000000000060301869
:1023D0000C060C1830600000000000007CC6C60C23
:1023E000181818001818000000000000007CC6C66D
:1023F000DEDEDEDCC07C00000000000010386CC6B1
:10240000C6FEC6C6C6C6000000000000FC666666C2
:102410007C66666666FC0000000000003C66C2C088
:10242000C0C0C0C2663C000000000000F86C6666D8
:10243000666666666CF8000000000000FE66626872
:102440007868606266FE000000000000FE66626858
:102450007868606060F00000000000003C66C2C068
:10246000C0DEC6C6663A000000000000C6C6C6C68A
:10247000FEC6C6C6C6C60000000000003C181818FC
:1024800018181818183C0000000000001E0C0C0C56
:102490000C0CCCCCCC78000000000000E6666C6C24
:1024A00078786C6666E6000000000000F06060600E
:1024B0006060606266FE000000000000C6EEFEFE86
:1024C000D6C6C6C6C6C6000000000000C6E6F6FEB8
:1024D000DECEC6C6C6C6000000000000386CC6C608
:1024E000C6C6C6C66C38000000000000FC66666602
:1024F0007C60606060F00000000000007CC6C6C622
:10250000C6C6C6D6DE7C0C0E00000000FC66666601
:102510007C6C666666E60000000000007CC6C66053
:10252000380C06C6C67C0000000000007E7E5A18EB
:1025300018181818183C000000000000C6C6C6C6CF
:10254000C6C6C6C6C67C000000000000C6C6C6C619
:10255000C6C6C66C3810000000000000C6C6C6C65D
:10256000C6D6D6FE6C6C000000000000C6C66C6CBF
:1025700038386C6CC6C600000000000066666666EF
:102580003C181818183C000000000000FEC6860C1D
:10259000183060C2C6FE0000000000003C30303041
:1025A00030303030303C0000000000000080C0E0DF
:1025B00070381C0E06020000000000003C0C0C0CE1
:1025C0000C0C0C0C0C3C0000000010386CC6000019
:1025D00000000000000000000000000000000000FB
:1025E00000000000000000FF000030301800000074
:1025F0000000000000000000000000000000007863
:102600000C7CCCCCCC76000000000000E060607850
:102610006C66666666DC0000000000000000007C5E
:10262000C6C0C0C0C67C0000000000001C0C0C3CF2
:102630006CCCCCCCCC760000000000000000007C0C
:10264000C6FEC0C0C67C000000000000386C64609C
:10265000F060606060F000000000000000000076A4
:10266000CCCCCCCCCC7C0CCC78000000E060606C96
:102670007666666666E600000000000018180038FE
:1026800018181818183C0000000000000606000E7C
:1026900006060606060666663C000000E060606608
:1026A0006C78786C66E60000000000003818181896
:1026B00018181818183C000000000000000000EC7A
:1026C000FED6D6D6D6D6000000000000000000DC02
:1026D0006666666666660000000000000000007C1A
:1026E000C6C6C6C6C67C000000000000000000DCB4
:1026F00066666666667C6060F0000000000000763A
:10270000CCCCCCCCCC7C0C0C1E000000000000DC3F
:102710007662606060F00000000000000000007C55
:10272000C660380CC67C000000000000103030FC91
:1027300030303030361C000000000000000000CCBB
:10274000CCCCCCCCCC7600000000000000000066B1
:10275000666666663C18000000000000000000C6C7
:10276000C6C6D6D6FE6C000000000000000000C601
:102770006C3838386CC6000000000000000000C64D
:10278000C6C6C6C6C67E060CF8000000000000FEE5
:10279000CC183060C6FE0000000000000E181818AB
:1027A00070181818180E00000000000018181818EB
:1027B00000181818181800000000000070181818E9
:1027C0000E181818187000000000000076DC0000D9
:1027D00000000000000000000000000000001038B1
:1027E0006CC6C6C6FE0000000000D0CD01047F8488
:1027F000122412241224FFA41224122412042314DB
:1028000041087FFC01000104FFFE0000BAC5001072
:102810001FF81010101010101FF00004FFFE04002D
:1028200008101FF800100010001000A00040A3BA0C
:1028300000000000000000000000000006000F0083
:102840000F000600000006000F000F000600000049
:10285000C9EE000047FE340218A4811062482040EF
:10286000084417FE20E0E150224E2C442040204036
:102870002040DBDA10041104112411241524FF2454
:1028800011241124112411241D24F12442240204B2
:1028900004040004CAD0020001000004FFFE01008D
:1028A00001083FFC210821082108210821082128CE
:1028B000211001000100BAC3100011FC100410081F
:1028C000FC102420242427FE24204420282010202B
:1028D0002820442084A00040EED2100815FC1F00E0
:1028E000210021087DFC91081508FF0811F811004E
:1028F00011001500190411FE0000C8F30404437E02
:102900003104142485F444444444144415F4244408
:10291000E444244425F4240424142408BFC60410E9
:102920000E10F89008500810FE9008501C141A1E43
:1029300029F0281048108810081008100810BCBC96
:1029400010401040104813FCFC401040104013F899
:102950001A083110D11010A0104010B0510E2604EA
:10296000D3D002000204FFFE040004100FF8081088
:1029700018102FF0481088100FF008100810085099
:102980000820CFDE00087DFC4508490849F85108B9
:10299000490849F845044588455069205110414E81
:1029A00041844100B9AB000000800480044008402D
:1029B00008201110210EC20402000400084010205B
:1029C0001FF000100000CBBE00083FFC00080048CC
:1029D000FFE8000800883FC82088208820882088D9
:1029E0003F88208800280010B5E70200020002108E
:1029F0007FF8421042107FF0421042107FF04210E8
:102A000002000204020401FC0000BBB000104038C8
:102A100033C0104000400044F7FE1040104813FC43
:102A20001208120816081A0813F80208D6A701009F
:102A300001000104FFFE010001003FF00820082012
:102A400004400280010002800C60301EC004B3D636
:102A500010401040105013F8FC40104817FC18109C
:102A60003014D7FE121011101110101050502020E9
:102A7000BAE11110111017FC1110FD1417FE3048A7
:102A80003BFC564853F8924813F810001110130CF1
:102A90001404CAFA040025FC2504248824502420A8
:102AA0002450248E070401103FF808200820044415
:102AB000FFFE0000C6C100083FFC200820083FF8C8
:102AC000222021482FFC222022243FFE22202220E7
:102AD000422084200820C9CF01000100010001002C
:102AE000011001F8010001000100010001000100D6
:102AF00001000104FFFE0000CFC20004FFFE02003F
:102B000002000200028002400230021002000200B5
:102B100002000200020002000200D7F302000200DD
:102B20000208FFFC04000400040008100FF81080E5
:102B300010802080408080847FFE0000D3D202007D
:102B400002000204FFFE04000400080008081FFC45
:102B5000280848088808080808080FF80808B5E396
:102B600002000200020803FC020002103FF82010DD
:102B7000201020103FF00000291024C84444800495
:102B8000BBF70100010001087FFC0100010001000A
:102B90000104FFFE010001002108210821083FF87F
:102BA00020080000000000000000010203040607E6
:102BB000080900000000010203040000DC2B0008EB
:102BC0000000002010000000E8010008EC2B0008C5
:102BD000100000201007000004020008010000009F
:0C2BE00010000000000000000024F400C1
:04000005080001AD41
:00000001FF
